:020000040800F2
:100000000028002071170008CD150008D31500083E
:10001000D9150008DF150008E515000800000000EC
:10002000000000000000000000000000EB150008C8
:10003000F715000800000000031600080F1600085E
:10004000B9170008B9170008B9170008B917000850
:10005000B9170008B9170008B9170008B917000840
:10006000B9170008B9170008B9170008B917000830
:10007000B9170008B9170008B9170008B917000820
:10008000B9170008B9170008B9170008B917000810
:10009000B9170008B9170008B9170008B917000800
:1000A000B9170008B9170008B9170008B9170008F0
:1000B0001D160008B917000800000000B917000855
:1000C000B91700080000000000000000B917000880
:1000D00000000000B9170008B91700080000000070
:1000E000B9170008B9170008B91700080000000088
:1000F0000000000000000000000000000000000000
:0C01000000000000000000005FF808F1A3
:10010C0010B5054C237833B9044B13B10448AFF345
:10011C0000800123237010BD580000200000000057
:10012C00102E000808B5034B1BB103490348AFF36D
:10013C00008008BD000000005C000020102E0008AC
:10014C0080B400AF064B1B68012B04D1044B00227A
:10015C001A60012300E000231846BD4680BC70479E
:10016C007400002080B400AF064B1B68012B04D137
:10017C00044B00221A60012300E000231846BD4600
:10018C0080BC70477800002080B400AF064B1B6821
:10019C00012B04D1044B00221A60012300E0002340
:1001AC001846BD4680BC70477C00002080B500AF6F
:1001BC00234B5B68224A1360214B9B68204A536097
:1001CC004FF400511F4801F0DDFD03461A461C4B4D
:1001DC009A601B4B1A681A4B5B689A422ED1184BCB
:1001EC005A68174B9B689A4228D1154BDA68144B06
:1001FC009B689A420FD0124B9B68114AD360104BEC
:10020C009B68002B1AD1104B01221A600F4B4FF434
:10021C0096721A6012E00D4B1B68013B0B4A13607F
:10022C000A4B1B68002B09D1054B9B68002B05D191
:10023C00064B64221A60044B01221A6000BF80BD79
:10024C00000000200010014074000020300000204D
:10025C0080B500AF234B5B68224A1360214B9B682F
:10026C00204A53604FF480411F4801F08BFD034638
:10027C001A461C4B9A601B4B1A681A4B5B689A42C5
:10028C002ED1184B5A68174B9B689A4228D1154BA4
:10029C00DA68144B9B689A420FD0124B9B68114A38
:1002AC00D360104B9B68002B1AD1104B01221A60A3
:1002BC000F4B4FF496721A6012E00D4B1B68013B0A
:1002CC000B4A13600A4B1B68002B09D1054B9B682A
:1002DC00002B05D1064B64221A60044B01221A60D4
:1002EC0000BF80BD100000200010014078000020ED
:1002FC003400002080B500AF234B5B68224A1360AA
:10030C00214B9B68204A53604FF400411F4801F079
:10031C0039FD03461A461C4B9A601B4B1A681A4B44
:10032C005B689A422ED1184B5A68174B9B689A42BD
:10033C0028D1154BDA68144B9B689A420FD0124B9C
:10034C009B68114AD360104B9B68002B1AD1104B41
:10035C0001221A600F4B4FF496721A6012E00D4B8B
:10036C001B68013B0B4A13600A4B1B68002B09D11D
:10037C00054B9B68002B05D1064B64221A60044B7D
:10038C0001221A6000BF80BD200000200010014037
:10039C007C0000203800002080B582B000AF78606F
:1003AC007B68092B00F2948001A252F823F000BF65
:1003BC00E5030008FF0300081904000833040008D3
:1003CC004D04000867040008810400089B04000821
:1003DC00B5040008C304000800224FF4FC413F4858
:1003EC0001F0E7FC01224FF400413C4801F0E1FC34
:1003FC006FE001224FF47241384801F0DAFC002220
:10040C004FF44061354801F0D4FC62E000224FF417
:10041C003641324801F0CDFC01224FF490412F4877
:10042C0001F0C7FC55E000224FF41E412B4801F0AF
:10043C00C0FC01224FF4C041284801F0BAFC48E04E
:10044C0000224FF44C41254801F0B3FC01224FF43B
:10045C004851224801F0ADFC3BE000224FF45A41D8
:10046C001E4801F0A6FC01224FF410511B4801F06C
:10047C00A0FC2EE000224FF47A41184801F099FCC0
:10048C0001224FF48061154801F093FC21E0002219
:10049C004FF46061114801F08CFC01224FF4704163
:1004AC000E4801F086FC14E000224FF47E410B480C
:1004BC0001F07FFC0DE000224FF45E41074801F093
:1004CC0078FC01224FF40051044801F072FC00E06A
:1004DC0000BF00BF0837BD4680BD00BF000801400B
:1004EC0080B582B000AF78607B68092B00F29480F5
:1004FC0001A252F823F000BF2D05000847050008A3
:10050C00610500087B05000895050008AF0500088B
:10051C00C9050008E3050008FD0500080B060008E6
:10052C0000224FF4FC413F4801F043FC01224FF400
:10053C0000413C4801F03DFC6FE001224FF4724158
:10054C00384801F036FC00224FF44061354801F088
:10055C0030FC62E000224FF43641324801F029FCB5
:10056C0001224FF490412F4801F023FC55E000226A
:10057C004FF41E412B4801F01CFC01224FF4C041EA
:10058C00284801F016FC48E000224FF44C41254865
:10059C0001F00FFC01224FF44851224801F009FCF4
:1005AC003BE000224FF45A411E4801F002FC0122AC
:1005BC004FF410511B4801F0FCFB2EE000224FF4CD
:1005CC007A41184801F0F5FB01224FF4806115487F
:1005DC0001F0EFFB21E000224FF46061114801F0C3
:1005EC00E8FB01224FF470410E4801F0E2FB14E0ED
:1005FC0000224FF47E410B4801F0DBFB0DE00022A2
:10060C004FF45E41074801F0D4FB01224FF4005136
:10061C00044801F0CEFB00E000BF00BF0837BD4628
:10062C0080BD00BF000C014080B500AFB64B1B680D
:10063C00013B042B00F2378601A252F823F000BFD5
:10064C0061060008A7060008550D0008450F0008B4
:10065C00F5100008AC4B02221A60642000F0E8FF91
:10066C00642000F0F9FF322001F00AF8322001F08A
:10067C001BF8A64B00221A60A54B02221A60A54B50
:10068C0000221A60A44B00221A60A44B00221A60AC
:10069C00A34B00221A6000F00DBEFFF751FD03467C
:1006AC00012B17D1984B03221A609E4B1B689E4A54
:1006BC001360192000F0BCFF322000F0E1FF322063
:1006CC0000F0F2FF954B00221A60954B00221A6045
:1006DC0000F0F0BD8D4B1B68022B00F0FA80022B52
:1006EC0000F38E81002B02D0012B79D088E10022FF
:1006FC0001218E4801F05DFB012202218B4801F0A3
:10070C0058FB01220421894801F053FB884B1B68DC
:10071C00012B49D1814B1B68002B02D0012B1FD020
:10072C0043E0322000F0ACFF00220121814801F0AF
:10073C0040FB012202217F4801F03BFB794B1A68F8
:10074C00744B1B68D31A7C4A82FB03129210DB1782
:10075C00D31A1846FFF720FE704B01221A6024E0D2
:10076C00322000F08DFF01220121724801F021FBA3
:10077C00002202216F4801F01CFB6A4B1A68654B82
:10078C001B68D21A6C4B83FB02139910D317C91A2E
:10079C000B469B000B445B00D11A0846FFF7FCFD8F
:1007AC005E4B00221A6000E000BF5A4B1A685D4B8A
:1007BC001B689A4206DB554B02221A60554B0022ED
:1007CC001A6024E15D4B1B68012B40F01B81514BDF
:1007DC001B6801334F4A1360642000F029FF11E1BC
:1007EC0001220121514801F0E4FA002202214F4874
:1007FC0001F0DFFA012204214C4801F0DAFA4C4BEB
:10080C001B68012B49D1454B1B68002B02D0012BD7
:10081C001FD043E0322000F033FF00220121454875
:10082C0001F0C7FA01220221424801F0C2FA444BFE
:10083C001A68384B1B68D31A3F4A82FB031292107A
:10084C00DB17D31A1846FFF7A7FD344B01221A60A9
:10085C0024E0322000F014FF01220121354801F080
:10086C00A8FA00220221334801F0A3FA344B1A688B
:10087C00284B1B68D21A304B83FB02139910D317E9
:10088C00C91A0B469B000B445B00D11A0846FFF7B4
:10089C0083FD224B00221A6000E000BF1D4B1A683A
:1008AC00274B1B689A4206DB184B00221A60194B27
:1008BC0000221A60ABE0214B1B68012B40F0A48096
:1008CC00144B1B680133134A1360642000F0B0FE14
:1008DC009AE001220121154801F06BFA0122022154
:1008EC00124801F066FA00220421104801F061FA66
:1008FC000F4B1B68012B68D1084B1B68002B21D0B8
:10090C00012B3ED062E000BF94000020800000204C
:10091C003C00002084000020880000208C00002077
:10092C0090000020400000209800002000080140AA
:10093C00B0000020000C014067666666A000002035
:10094C0044000020322000F09BFE00220121AF4821
:10095C0001F02FFA01220221AC4801F02AFAAC4B2B
:10096C001A68AC4B1B68D31AAB4A82FB0312921069
:10097C00DB17D31A1846FFF70FFDA84B01221A609C
:10098C0024E0322000F07CFE012201219F4801F07E
:10099C0010FA002202219D4801F00BFA9C4B1A68B8
:1009AC009C4B1B68D21A9C4B83FB02139910D317D8
:1009BC00C91A0B469B000B445B00D11A0846FFF783
:1009CC00EBFC964B00221A6000E000BF914B1A68BA
:1009DC008F4B1B689A4206DB914B01221A608D4BA0
:1009EC0000221A6013E08F4B1B68012B0ED1894B30
:1009FC001B680133874A1360642000F019FE05E080
:100A0C0000BF04E000BF02E000BF00E000BF864B67
:100A1C001B68022B00F01881022B00F38D81002B38
:100A2C0002D0012B79D087E1804B1B68012B49D177
:100A3C007F4B1B68002B02D0012B1FD043E03220D0
:100A4C0000F032FE00220421704801F0B2F90122BC
:100A5C0008216E4801F0ADF9764B1A68764B1B688D
:100A6C00D31A6D4A82FB03129210DB17D31A184665
:100A7C00FFF736FD6E4B01221A6024E0322000F0A5
:100A8C0013FE01220421614801F093F90022082190
:100A9C005E4801F08EF9674B1A68674B1B68D21AD7
:100AAC005D4B83FB02139910D317C91A0B469B009D
:100ABC000B445B00D11A0846FFF712FD5C4B002279
:100ACC001A6000E000BF5C4B1A685A4B1B689A42D4
:100ADC0006DB554B02221A60574B00221A6032E19A
:100AEC0000220821554801F064F9012210215348D5
:100AFC0001F05FF901222021504801F05AF9504BC6
:100B0C001B68012B40F01A814B4B1B6801334A4A7E
:100B1C001360642000F0A0FD10E1444B1B68012B16
:100B2C0049D1434B1B68002B02D0012B1FD043E053
:100B3C00322000F0B9FD00220421344801F039F9CB
:100B4C0001220821314801F034F93E4B1A683A4B26
:100B5C001B68D31A304A82FB03129210DB17D31A8C
:100B6C001846FFF7BDFC324B01221A6024E03220FC
:100B7C0000F09AFD01220421244801F01AF9002208
:100B8C000821224801F015F92E4B1A682A4B1B68D4
:100B9C00D21A214B83FB02139910D317C91A0B4697
:100BAC009B000B445B00D11A0846FFF799FC204BC5
:100BBC0000221A6000E000BF1F4B1A68214B1B6813
:100BCC009A4206DB184B00221A601B4B00221A605B
:100BDC00B9E001220821194801F0EBF8002210219C
:100BEC00164801F0E6F801222021144801F0E1F842
:100BFC00134B1B68012B40F0A3800F4B1B68013378
:100C0C000D4A1360642000F027FD99E0000C0140B0
:100C1C004800002084000020676666668C00002077
:100C2C0080000020A00000203C000020B800002024
:100C3C0090000020400000208800002000080140A7
:100C4C00A800002044000020AB4B1B68012B49D1AD
:100C5C00AA4B1B68002B02D0012B1FD043E0322083
:100C6C0000F022FD00220421A54801F0A2F8012287
:100C7C000821A34801F09DF8A24B1A68A24B1B68EF
:100C8C00D31AA24A82FB03129210DB17D31A18460E
:100C9C00FFF726FC994B01221A6024E0322000F069
:100CAC0003FD01220421964801F083F8002208215B
:100CBC00934801F07EF8934B1A68934B1B68D21A39
:100CCC00924B83FB02139910D317C91A0B469B0046
:100CDC000B445B00D11A0846FFF702FC874B00223D
:100CEC001A6000E000BF884B1A68864B1B689A425A
:100CFC0006DB874B01221A60834B00221A6022E02C
:100D0C0001220821834801F054F801221021814866
:100D1C0001F04FF8002220217E4801F04AF87E4B6A
:100D2C001B68012B0ED1784B1B680133764A13607C
:100D3C00642000F091FC05E000BFBBE200BFB9E20B
:100D4C0000BFB7E200BFB5E201220821714801F0F3
:100D5C0030F8012210216F4801F02BF801222021DC
:100D6C006C4801F026F86D4B1B68012B10D1192033
:100D7C0000F05EFC0121674801F033F801220221EA
:100D8C00644801F016F801220421624801F011F8C0
:100D9C00634B1B68012B43D1624B1B68002B02D0A9
:100DAC00012B1CD03DE0322000F06AFC0022012116
:100DBC00534800F0FEFF01220221514800F0F9FFD8
:100DCC00594B1B68514A82FB03129210DB17D31A42
:100DDC001846FFF7E1FA534B01221A6021E032204A
:100DEC0000F04EFC01220121454800F0E2FF0022F8
:100DFC000221434800F0DDFF4B4B1A68434B83FB49
:100E0C0002139910D317C91A0B469B000B445B00B5
:100E1C00D11A0846FFF7C0FA424B00221A6000E0D4
:100E2C0000BF354B1B68012B2ED1344B1B68002B9C
:100E3C0002D0012B14D028E0322000F035FC002227
:100E4C0004212F4800F0B5FF012208212C4800F0A6
:100E5C00B0FF0020FFF744FB284B01221A6014E07E
:100E6C00322000F021FC01220421254800F0A1FFD2
:100E7C0000220821224800F09CFF0120FFF730FBE4
:100E8C001E4B00221A6000E000BFFFF76BF903460F
:100E9C00012B0BD1244B1B680133234A1360224BCB
:100EAC001B68632B02DD204B00221A60FFF76CF9E4
:100EBC000346012B03D11C4B1B681C4A1360FFF724
:100ECC003FF90346012B40F0F081194B1B68164A81
:100EDC001360184B04221A60192000F0A9FB322071
:100EEC0000F0CEFB322000F0DFFB0E4B00221A602C
:100EFC00024B00221A60DDE1B800002090000020B7
:100F0C00000C0140480000208800002067666666DF
:100F1C003C00002000080140A8000020A000002098
:100F2C00B00000208C000020980000204000002021
:100F3C00440000209400002001220821BA4800F04F
:100F4C0038FF01221021B84800F033FF0122202184
:100F5C00B54800F02EFFB54B1B68012B10D11920A2
:100F6C0000F066FB0221B04800F03BFF012201219A
:100F7C00AD4800F01EFF01220421AB4800F019FF20
:100F8C00AB4B1B68012B43D1AA4B1B68002B02D027
:100F9C00012B1CD03DE0322000F072FB002201211D
:100FAC00A54800F006FF01220221A34800F001FF32
:100FBC00A24B1B68A24A82FB03129210DB17D31AB6
:100FCC001846FFF7E9F99B4B01221A6021E0322009
:100FDC0000F056FB01220121974800F0EAFE0022A6
:100FEC000221954800F0E5FE944B1A68944B83FB64
:100FFC0002139910D317C91A0B469B000B445B00C4
:10100C00D11A0846FFF7C8F98A4B00221A6000E093
:10101C0000BF8C4B1B68012B2ED18B4B1B68002BFC
:10102C0002D0012B14D028E0322000F03DFB00222E
:10103C000421814800F0BDFE012208217E4800F009
:10104C00B8FE0020FFF74CFA7F4B01221A6014E027
:10105C00322000F029FB01220421774800F0A9FE80
:10106C0000220821744800F0A4FE0220FFF738FA91
:10107C00754B00221A6000E000BFFFF773F80346BF
:10108C00012B0BD16D4B1B6801336C4A13606B4BFE
:10109C001B68632B02DD694B00221A60FFF774F8A2
:1010AC000346012B03D1654B1B68684A1360FFF79D
:1010BC0047F80346012B40F0FA80654B1B685F4AEA
:1010CC001360644B05221A60192000F0B1FA32202B
:1010DC0000F0D6FA322000F0E7FA564B00221A60E4
:1010EC00594B00221A60E5E0012208214E4800F01D
:1010FC0060FE012210214C4800F05BFE01222021F1
:10110C00494800F056FE494B1B68012B10D11920A1
:10111C0000F08EFA0421444800F063FE0122012104
:10112C00414800F046FE012202213F4800F041FEFA
:10113C003F4B1B68012B43D13E4B1B68002B02D04D
:10114C00012B1CD03DE0322000F09AFA0022012144
:10115C00394800F02EFE01220221374800F029FE0A
:10116C00364B1B68364A82FB03129210DB17D31ADC
:10117C001846FFF711F92F4B01221A6021E032209B
:10118C0000F07EFA012201212B4800F012FE002211
:10119C000221294800F00DFE284B1A68284B83FBCE
:1011AC0002139910D317C91A0B469B000B445B0012
:1011BC00D11A0846FFF7F0F81E4B00221A6000E027
:1011CC0000BF204B1B68012B46D11F4B1B68002B0B
:1011DC0002D0012B14D040E0322000F065FA00223E
:1011EC000421154800F0E5FD01220821124800F009
:1011FC00E0FD0020FFF774F9134B01221A602CE07C
:10120C00322000F051FA012204210B4800F0D1FDEC
:10121C0000220821084800F0CCFD0320FFF760F9FC
:10122C00094B00221A6018E000080140A0000020C1
:10123C00B00000208C000020000C01409800002021
:10124C0067666666B800002090000020440000200D
:10125C00480000209400002000BFFEF783FF0346E7
:10126C00012B0BD1144B1B680133134A1360124B27
:10127C001B68632B02DD104B00221A60FEF784FF03
:10128C000346012B03D10C4B1B680C4A1360FEF771
:10129C0057FF0346012B0CD1074B00221A60084B59
:1012AC0001221A6006E000BF04E000BF02E000BFAC
:1012BC0000E000BF00BF80BD980000204800002067
:1012CC009400002080B500AF00F072FA00F012F824
:1012DC0000F098F800F04AF8044801F0D3F9044BF8
:1012EC0001221A60FFF7A0F9FCE700BFBC00002048
:1012FC009400002080B590B000AF07F118032822AD
:10130C000021184601F076FD3B1D00221A605A6040
:10131C009A60DA601A610223BB610123BB6210235D
:10132C00FB6200237B6307F11803184600F072FD83
:10133C000346002B01D000F0E7F80F237B6000235D
:10134C00BB600023FB6000233B6100237B613B1DE2
:10135C000021184600F0DEFF0346002B01D000F000
:10136C00D3F800BF4037BD4680BD000080B586B0C5
:10137C0000AF07F1080300221A605A609A60DA6025
:10138C003B4600221A605A601D4B4FF080421A6097
:10139C001B4B41F63F725A60194B00229A60184B56
:1013AC000922DA60164B00221A61154B00229A6151
:1013BC00134801F017F90346002B01D000F0A4F8F4
:1013CC004FF48053BB6007F1080319460C4801F039
:1013DC00ADFA0346002B01D000F096F800233B60D9
:1013EC0000237B603B461946054801F075FC03461B
:1013FC00002B01D000F088F800BF1837BD4680BD27
:10140C00BC00002080B588B000AF07F110030022AB
:10141C001A605A609A60DA602F4B9B692E4A43F02F
:10142C00100393612C4B9B6903F01003FB60FB686A
:10143C00294B9B69284A43F004039361264B9B6913
:10144C0003F00403BB60BB68234B9B69224A43F047
:10145C0008039361204B9B6903F008037B607B6856
:10146C0000224FF63F611D4800F0A3FC00224FF60E
:10147C000F611B4800F09DFC4FF460433B6100235F
:10148C007B610123BB6107F110031946154800F07D
:10149C00FFFA4FF63F633B6101237B610023BB6185
:1014AC000223FB6107F1100319460C4800F0F0FA17
:1014BC004FF60F633B6101237B610023BB61022369
:1014CC00FB6107F110031946054800F0E1FA00BF73
:1014DC002037BD4680BD00BF00100240000801400F
:1014EC00000C01400010014080B582B000AF786064
:1014FC0000F0EEF8FEF75AFEFEF7AAFEFEF7FAFE33
:10150C0000BF0837BD4680BD80B400AF72B600BFC7
:10151C00FEE7000080B485B000AF154B9B69144A00
:10152C0043F001039361124B9B6903F00103BB6011
:10153C00BB680F4BDB690E4A43F08053D3610C4BF5
:10154C00DB6903F080537B607B680A4B5B68FB6054
:10155C00FB6823F0E063FB60FB6843F08063FB6097
:10156C00044AFB68536000BF1437BD4680BC70470B
:10157C00001002400000014080B584B000AF7860DC
:10158C007B681B68B3F1804F13D10C4BDB690B4AA2
:10159C0043F00103D361094BDB6903F00103FB60EA
:1015AC00FB68002200211C2000F03BFA1C2000F0FC
:1015BC0054FA00BF1037BD4680BD00BF001002407A
:1015CC0080B400AFFEE780B400AFFEE780B400AF9C
:1015DC00FEE780B400AFFEE780B400AFFEE780B456
:1015EC0000AF00BFBD4680BC704780B400AF00BFE9
:1015FC00BD4680BC704780B400AF00BFBD4680BC08
:10160C00704780B500AF00F019F900BF80BD000035
:10161C0080B500AF024801F081F800BF80BD00BF6B
:10162C00BC00002080B400AF00BFBD4680BC70473A
:10163C0080B483B000AF7860054A7B681360054BBB
:10164C0000221A6000BF0C37BD4680BC704700BF3B
:10165C009C000020A000002080B483B000AF786014
:10166C00054A7B681360054B00221A6000BF0C37DB
:10167C00BD4680BC704700BFA4000020A80000201D
:10168C0080B483B000AF7860054A7B681360054B6B
:10169C0000221A6000BF0C37BD4680BC704700BFEB
:1016AC00AC000020B000002080B483B000AF7860A4
:1016BC00054A7B681360054B00221A6000BF0C378B
:1016CC00BD4680BC704700BFB4000020B8000020AD
:1016DC0080B400AF1B4B1B68002B05DD194B1B683E
:1016EC00013B184A136002E0174B01221A60174B9A
:1016FC001B68002B05DD154B1B68013B134A13605F
:10170C0002E0134B01221A60124B1B68002B05DD03
:10171C00104B1B68013B0F4A136002E00E4B012279
:10172C001A600E4B1B68002B05DD0C4B1B68013B34
:10173C000A4A136002E00A4B01221A6000BFBD4640
:10174C0080BC70479C000020A0000020A40000205A
:10175C00A8000020AC000020B0000020B400002045
:10176C00B80000200C480D490D4A002302E0D45863
:10177C00C4500433C4188C42F9D30A4A0A4C0023CF
:10178C0001E013600432A242FBD3FFF74BFF01F0E0
:10179C000DFBFFF797FD704700000020580000205C
:1017AC00502E00085800002008010020FEE7000021
:1017BC0080B500AF084B1B68074A43F01003136059
:1017CC00032000F023F90F2000F008F8FFF7A2FE29
:1017DC000023184680BD00BF0020024080B582B0B7
:1017EC0000AF7860124B1A68124B1B7819464FF4F5
:1017FC007A73B3FBF1F3B2FBF3F3184600F03BF949
:10180C000346002B01D001230EE07B680F2B0AD876
:10181C00002279684FF0FF3000F003F9064A7B682C
:10182C001360002300E0012318460837BD4680BD35
:10183C004C000020540000205000002080B400AF69
:10184C00054B1B781A46054B1B681344034A13605F
:10185C0000BFBD4680BC704754000020040100202E
:10186C0080B400AF024B1B681846BD4680BC704765
:10187C000401002080B485B000AF78607B6803F071
:10188C000703FB600C4BDB68BB60BA684FF6FF03C9
:10189C001340BB60FB681A02BB68134343F0BF6381
:1018AC0043F40033BB60044ABB68D36000BF1437F9
:1018BC00BD4680BC704700BF00ED00E080B400AFB7
:1018CC00044BDB681B0A03F007031846BD4680BCBB
:1018DC00704700BF00ED00E080B483B000AF03465A
:1018EC00FB7197F90730002B0BDBFB7903F01F0220
:1018FC00064997F907305B09012000FA02F241F81A
:10190C00232000BF0C37BD4680BC704700E100E0CF
:10191C0080B483B000AF03463960FB7197F9073090
:10192C00002B0ADB3B68DAB20C4997F9073012013D
:10193C00D2B20B4483F800230AE03B68DAB20849C0
:10194C00FB7903F00F03043B1201D2B20B441A765D
:10195C0000BF0C37BD4680BC704700BF00E100E003
:10196C0000ED00E080B489B000AFF860B9607A6037
:10197C00FB6803F00703FB61FB69C3F10703042B4E
:10198C0028BF0423BB61FB690433062B02D9FB6916
:10199C00033B00E000237B614FF0FF32BB6902FA8E
:1019AC0003F3DA43BB681A407B699A404FF0FF316E
:1019BC007B6901FA03F3D9437B680B401343184648
:1019CC002437BD4680BC704780B582B000AF7860CC
:1019DC007B68013BB3F1807F01D301230FE00A4AFE
:1019EC007B68013B53600F214FF0FF30FFF790FFF6
:1019FC00054B00229A60044B07221A6000231846FC
:101A0C000837BD4680BD00BF10E000E080B582B055
:101A1C0000AF78607868FFF72DFF00BF0837BD4630
:101A2C0080BD80B586B000AF0346B9607A60FB73A9
:101A3C0000237B61FFF742FF78617A68B9687869A7
:101A4C00FFF790FF024697F90F3011461846FFF743
:101A5C005FFF00BF1837BD4680BD80B582B000AFB8
:101A6C000346FB7197F907301846FFF735FF00BFA7
:101A7C000837BD4680BD80B582B000AF786078680D
:101A8C00FFF7A2FF034618460837BD4680BD00008D
:101A9C0080B48BB000AF7860396000237B62002388
:101AAC003B6248E101227B6A02FA03F3FB613B686B
:101ABC001B68FA691340BB61BA69FB699A4240F032
:101ACC0037813B685B68A34A93425ED0A14A93423C
:101ADC0075D8A14A934258D09F4A93426FD89F4AD7
:101AEC00934252D09D4A934269D89D4A93424CD01E
:101AFC009B4A934263D89B4A934246D0994A93425D
:101B0C005DD8122B2AD8122B59D801A252F823F0E7
:101B1C00971B0008711B0008831B0008C51B0008DD
:101B2C00CB1B0008CB1B0008CB1B0008CB1B0008F1
:101B3C00CB1B0008CB1B0008CB1B0008CB1B0008E1
:101B4C00CB1B0008CB1B0008CB1B0008CB1B0008D1
:101B5C00CB1B0008791B00088D1B0008824A93429E
:101B6C0013D02CE03B68DB683B6229E03B68DB6808
:101B7C0004333B6224E03B68DB6808333B621FE0C4
:101B8C003B68DB680C333B621AE03B689B68002BBC
:101B9C0002D104233B6213E03B689B68012B05D107
:101BAC0008233B627B68FA691A6109E008233B62EF
:101BBC007B68FA695A6103E000233B6200E000BFD6
:101BCC00BB69FF2B01D87B6801E07B6804337B6128
:101BDC00BB69FF2B02D87B6A9B0002E07B6A083B47
:101BEC009B003B617B691A680F213B6901FA03F387
:101BFC00DB431A40396A3B6901FA03F31A437B69E8
:101C0C001A603B685B6803F08053002B00F09080F7
:101C1C00564B9B69554A43F001039361534B9B69A7
:101C2C0003F00103BB60BB68514A7B6A9B0802331B
:101C3C0052F82330FB607B6A03F003039B000F22F6
:101C4C0002FA03F3DB43FA681340FB607B68494AF2
:101C5C0093420DD07B68484A934207D07B68474A31
:101C6C00934201D1022304E0032302E0012300E0AC
:101C7C0000237A6A02F0030292009340FA6813433D
:101C8C00FB603B497B6A9B080233FA6841F82320CE
:101C9C003B685B6803F48033002B06D0384B1A6822
:101CAC003749BB6913430B6006E0354B1A68BB69B7
:101CBC00DB43334913400B603B685B6803F4003330
:101CCC00002B06D02E4B5A682D49BB6913434B6031
:101CDC0006E02B4B5A68BB69DB43294913404B6028
:101CEC003B685B6803F48013002B06D0244B9A6886
:101CFC002349BB6913438B6006E0214B9A68BB698F
:101D0C00DB431F4913408B603B685B6803F4001393
:101D1C00002B06D01A4BDA681949BB691343CB6008
:101D2C0006E0174BDA68BB69DB4315491340CB60FF
:101D3C007B6A01337B623B681A687B6A22FA03F385
:101D4C00002B7FF4AFAE00BF00BF2C37BD4680BC6C
:101D5C00704700BF0000321000003110000022104C
:101D6C0000002110000012100000111000100240A1
:101D7C000000014000080140000C0140001001402F
:101D8C000004014080B485B000AF78600B467B80C6
:101D9C007B689A687B881340002B02D00123FB736D
:101DAC0001E00023FB73FB7B18461437BD4680BC57
:101DBC00704780B483B000AF78600B467B801346CD
:101DCC007B707B78002B03D07A887B681A6103E0E8
:101DDC007B881A047B681A6100BF0C37BD4680BC37
:101DEC00704780B485B000AF78600B467B807B6811
:101DFC00DB68FB607A88FB6813401A04FB68D943E4
:101E0C007B880B401A437B681A6100BF1437BD46B0
:101E1C0080BC704780B586B000AF78607B68002BC3
:101E2C0001D101236CE27B681B6803F00103002BDA
:101E3C0000F08780924B5B6803F00C03042B0CD0F2
:101E4C008F4B5B6803F00C03082B12D18C4B5B6837
:101E5C0003F48033B3F5803F0BD1894B1B6803F43B
:101E6C000033002B6CD07B685B68002B68D101239E
:101E7C0046E27B685B68B3F5803F06D1804B1B68FC
:101E8C007F4A43F4803313602EE07B685B68002B41
:101E9C000CD17B4B1B687A4A23F480331360784B4C
:101EAC001B68774A23F4802313601DE07B685B6812
:101EBC00B3F5A02F0CD1724B1B68714A43F48023ED
:101ECC0013606F4B1B686E4A43F4803313600BE056
:101EDC006B4B1B686A4A23F480331360684B1B6896
:101EEC00674A23F4802313607B685B68002B13D054
:101EFC00FFF7B6FC386108E0FFF7B2FC02463B691D
:101F0C00D31A642B01D90323FAE15D4B1B6803F44C
:101F1C000033002BF0D014E0FFF7A2FC386108E08E
:101F2C00FFF79EFC02463B69D31A642B01D90323AD
:101F3C00E6E1534B1B6803F40033002BF0D100E0B7
:101F4C0000BF7B681B6803F00203002B63D04C4B73
:101F5C005B6803F00C03002B0BD0494B5B6803F060
:101F6C000C03082B1CD1464B5B6803F48033002B0D
:101F7C0016D1434B1B6803F00203002B05D07B6882
:101F8C001B69012B01D00123BAE13D4B1B6823F0E7
:101F9C00F8027B685B69DB00394913430B603AE05C
:101FAC007B681B69002B20D0364B01221A60FFF78F
:101FBC0057FC386108E0FFF753FC02463B69D31A23
:101FCC00022B01D903239BE12D4B1B6803F0020369
:101FDC00002BF0D02A4B1B6823F0F8027B685B695E
:101FEC00DB00274913430B6015E0264B00221A60D7
:101FFC00FFF736FC386108E0FFF732FC02463B691C
:10200C00D31A022B01D903237AE11D4B1B6803F071
:10201C000203002BF0D17B681B6803F00803002B34
:10202C003AD07B689B69002B19D0174B01221A60A0
:10203C00FFF716FC386108E0FFF712FC02463B691B
:10204C00D31A022B01D903235AE10D4B5B6A03F01F
:10205C000203002BF0D0012000F0A6FA1CE00A4B82
:10206C0000221A60FFF7FCFB38610FE0FFF7F8FB6A
:10207C0002463B69D31A022B08D9032340E100BF67
:10208C000010024000004242800442429E4B5B6AB8
:10209C0003F00203002BE9D17B681B6803F00403F7
:1020AC00002B00F0A6800023FB75974BDB6903F037
:1020BC008053002B0DD1944BDB69934A43F0805332
:1020CC00D361914BDB6903F08053BB60BB68012388
:1020DC00FB758E4B1B6803F48073002B18D18B4B54
:1020EC001B688A4A43F480731360FFF7B9FB3861AD
:1020FC0008E0FFF7B5FB02463B69D31A642B01D904
:10210C000323FDE0814B1B6803F48073002BF0D09C
:10211C007B68DB68012B06D17B4B1B6A7A4A43F048
:10212C00010313622DE07B68DB68002B0CD1764B2E
:10213C001B6A754A23F001031362734B1B6A724AC4
:10214C0023F0040313621CE07B68DB68052B0CD1C5
:10215C006D4B1B6A6C4A43F0040313626A4B1B6A97
:10216C00694A43F0010313620BE0674B1B6A664A32
:10217C0023F001031362644B1B6A634A23F00403CC
:10218C0013627B68DB68002B15D0FFF769FB3861A5
:10219C000AE0FFF765FB02463B69D31A41F288322D
:1021AC00934201D90323ABE0574B1B6A03F00203A4
:1021BC00002BEED014E0FFF753FB38610AE0FFF779
:1021CC004FFB02463B69D31A41F28832934201D944
:1021DC00032395E04C4B1B6A03F00203002BEED15A
:1021EC00FB7D012B05D1484BDB69474A23F080531B
:1021FC00D3617B68DB69002B00F08180424B5B680C
:10220C0003F00C03082B61D07B68DB69022B46D1F1
:10221C003F4B00221A60FFF723FB386108E0FFF701
:10222C001FFB02463B69D31A022B01D9032367E03B
:10223C00354B1B6803F00073002BF0D17B681B6AD5
:10224C00B3F5803F08D1304B5B6823F400327B68D8
:10225C009B682D4913434B602B4B5B6823F4741222
:10226C007B68196A7B685B6A0B43274913434B6095
:10227C00274B01221A60FFF7F3FA386108E0FFF7E9
:10228C00EFFA02463B69D31A022B01D9032337E03C
:10229C001D4B1B6803F00073002BF0D02FE01C4B80
:1022AC0000221A60FFF7DCFA386108E0FFF7D8FA71
:1022BC0002463B69D31A022B01D9032320E0124BAF
:1022CC001B6803F00073002BF0D118E07B68DB690E
:1022DC00012B01D1012313E00B4B5B68FB60FB6806
:1022EC0003F480327B681B6A9A4206D1FB6803F4C4
:1022FC0070127B685B6A9A4201D0012300E00023D4
:10230C0018461837BD4680BD0010024000700040D2
:10231C006000424280B584B000AF786039607B6861
:10232C00002B01D10123D0E06A4B1B6803F007039B
:10233C003A689A4210D9674B1B6823F0070265492B
:10234C003B6813430B60634B1B6803F007033A684D
:10235C009A4201D00123B8E07B681B6803F00203AA
:10236C00002B20D07B681B6803F00403002B05D0E6
:10237C00594B5B68584A43F4E06353607B681B68B5
:10238C0003F00803002B05D0534B5B68524A43F40F
:10239C0060535360504B5B6823F0F0027B689B6882
:1023AC004D4913434B607B681B6803F00103002B02
:1023BC0040D07B685B68012B07D1474B1B6803F44B
:1023CC000033002B15D101237FE07B685B68022B67
:1023DC0007D1414B1B6803F00073002B09D101237B
:1023EC0073E03D4B1B6803F00203002B01D101236A
:1023FC006BE0394B5B6823F003027B685B68364902
:10240C0013434B60FFF72CFAF8600AE0FFF728FA49
:10241C000246FB68D31A41F28832934201D9032356
:10242C0053E02D4B5B6803F00C027B685B689B00F0
:10243C009A42EBD1274B1B6803F007033A689A4288
:10244C0010D2244B1B6823F0070222493B6813432C
:10245C000B60204B1B6803F007033A689A4201D0CB
:10246C00012332E07B681B6803F00403002B08D0C7
:10247C00194B5B6823F4E0627B68DB6816491343F5
:10248C004B607B681B6803F00803002B09D0124BD0
:10249C005B6823F460527B681B69DB000E491343B5
:1024AC004B6000F021F802460B4B5B681B0903F0F4
:1024BC000F030A49CB5C22FA03F3094A1360094B58
:1024CC001B681846FFF78AF9002318461037BD46DB
:1024DC0080BD00BF0020024000100240382E0008D2
:1024EC004C0000205000002090B48AB000AF2A4B62
:1024FC003C1D0FCB84E80F0040F201233B800023EE
:10250C00FB610023BB6100237B6200237B61002302
:10251C003B62224B5B68FB61FB6903F00C03042BF1
:10252C0002D0082B03D02DE01D4B3B622DE0FB6944
:10253C009B0C03F00F0307F12802134413F8243CFF
:10254C007B61FB6903F48033002B13D0134B5B6866
:10255C005B0C03F0010307F12802134413F8283C29
:10256C00BB617B690E4A02FB03F2BB69B2FBF3F35E
:10257C007B6204E07B690B4A02FB03F37B627B6AA0
:10258C003B6202E0064B3B6200BF3B6A18462837B1
:10259C00BD4690BC704700BF282E000800100240BA
:1025AC0000127A0000093D0080B485B000AF78605D
:1025BC000A4B1B680A4AA2FB03235B0A7A6802FBDC
:1025CC0003F3FB6000BFFB685A1EFA60002BF9D1C5
:1025DC0000BF00BF1437BD4680BC70474C000020C4
:1025EC00D34D621080B582B000AF78607B68002B51
:1025FC0001D1012341E07B6893F83D30DBB2002B25
:10260C0006D17B68002283F83C207868FEF7B4FF83
:10261C007B68022283F83D207B681A687B68043350
:10262C001946104600F06AFA7B68012283F84620AE
:10263C007B68012283F83E207B68012283F83F20CF
:10264C007B68012283F840207B68012283F84120BB
:10265C007B68012283F842207B68012283F84320A7
:10266C007B68012283F844207B68012283F8452093
:10267C007B68012283F83D20002318460837BD46AD
:10268C0080BD000080B485B000AF78607B6893F8A3
:10269C003D30DBB2012B01D0012335E07B680222F7
:1026AC0083F83D207B681B68DA687B681B6842F006
:1026BC000102DA607B681B68164A934209D07B687A
:1026CC001B68B3F1804F04D07B681B68124A93429D
:1026DC0011D17B681B689B6803F00703FB60FB68E8
:1026EC00062B10D07B681B681A687B681B6842F04D
:1026FC0001021A6007E07B681B681A687B681B681C
:10270C0042F001021A60002318461437BD4680BC03
:10271C00704700BF002C01400004004080B582B01F
:10272C0000AF78607B681B681B6903F00203022B07
:10273C0022D17B681B68DB6803F00203022B1BD1E0
:10274C007B681B686FF002021A617B6801221A77A2
:10275C007B681B689B6903F00303002B03D078682C
:10276C0000F0B1F905E0786800F0A4F9786800F0A1
:10277C00B3F97B6800221A777B681B681B6903F02E
:10278C000403042B22D17B681B68DB6803F0040371
:10279C00042B1BD17B681B686FF004021A617B68E9
:1027AC0002221A777B681B689B6903F44073002B29
:1027BC0003D0786800F087F905E0786800F07AF9C2
:1027CC00786800F089F97B6800221A777B681B68AF
:1027DC001B6903F00803082B22D17B681B68DB689C
:1027EC0003F00803082B1BD17B681B686FF00802F1
:1027FC001A617B6804221A777B681B68DB6903F01B
:10280C000303002B03D0786800F05DF905E07868CD
:10281C0000F050F9786800F05FF97B6800221A77B5
:10282C007B681B681B6903F01003102B22D17B689B
:10283C001B68DB6803F01003102B1BD17B681B6833
:10284C006FF010021A617B6808221A777B681B688C
:10285C00DB6903F44073002B03D0786800F033F984
:10286C0005E0786800F026F9786800F035F97B68A7
:10287C0000221A777B681B681B6903F00103012B8C
:10288C000ED17B681B68DB6803F00103012B07D1B9
:10289C007B681B686FF001021A617868FEF724FEF2
:1028AC007B681B681B6903F08003802B0ED17B684F
:1028BC001B68DB6803F08003802B07D17B681B68E7
:1028CC006FF080021A61786800F067FA7B681B6809
:1028DC001B6903F04003402B0ED17B681B68DB683F
:1028EC0003F04003402B07D17B681B686FF040025C
:1028FC001A61786800F0F9F87B681B681B6903F0B3
:10290C002003202B0ED17B681B68DB6803F02003AF
:10291C00202B07D17B681B686FF020021A61786846
:10292C0000F032FA00BF0837BD4680BD80B584B0D8
:10293C0000AF786039607B6893F83C30012B01D193
:10294C000223B3E07B68012283F83C207B680222DF
:10295C0083F83D207B681B689B68FB60FB6823F059
:10296C007703FB60FB6823F47F43FB607B681B6889
:10297C00FA689A603B681B68B3F5005F3ED0B3F50C
:10298C00005F00F28780B3F5805F00F08580B3F5BF
:10299C00805F7FD8702B1AD0702B7BD8602B50D0D7
:1029AC00602B77D8502B3CD0502B73D8402B58D061
:1029BC00402B6FD8302B64D0302B6BD8202B60D0B1
:1029CC00202B67D8002B5CD0102B5AD062E07B6890
:1029DC0018683B6899683B685A683B68DB6800F08C
:1029EC005CF97B681B689B68FB60FB6843F07703B2
:1029FC00FB607B681B68FA689A604EE07B6818681D
:102A0C003B6899683B685A683B68DB6800F045F99D
:102A1C007B681B689A687B681B6842F480429A60EA
:102A2C003BE07B6818683B6859683B68DB681A4672
:102A3C0000F0BCF87B681B685021184600F013F9B5
:102A4C002BE07B6818683B6859683B68DB681A4662
:102A5C0000F0DAF87B681B686021184600F003F977
:102A6C001BE07B6818683B6859683B68DB681A4652
:102A7C0000F09CF87B681B684021184600F0F3F8C6
:102A8C000BE07B681A683B681B681946104600F01F
:102A9C00EAF802E000BF00E000BF7B68012283F887
:102AAC003D207B68002283F83C2000231846103719
:102ABC00BD4680BD80B483B000AF786000BF0C37DA
:102ACC00BD4680BC704780B483B000AF786000BF57
:102ADC000C37BD4680BC704780B483B000AF7860C3
:102AEC0000BF0C37BD4680BC704780B483B000AFCC
:102AFC00786000BF0C37BD4680BC704780B485B091
:102B0C0000AF786039607B681B68FB607B68254A86
:102B1C00934207D07B68B3F1804F03D07B68224A85
:102B2C00934208D1FB6823F07003FB603B685B6841
:102B3C00FA681343FB607B681A4A934207D07B68A0
:102B4C00B3F1804F03D07B68174A934208D1FB68DE
:102B5C0023F44073FB603B68DB68FA681343FB604B
:102B6C00FB6823F080023B685B691343FB607B6866
:102B7C00FA681A603B689A687B68DA623B681A6884
:102B8C007B689A627B68074A934203D13B681A6957
:102B9C007B681A637B6801225A6100BF1437BD46FB
:102BAC0080BC7047002C01400004004080B487B00A
:102BBC0000AFF860B9607A60FB681B6A7B61FB68E8
:102BCC001B6A23F00102FB681A62FB689B693B617C
:102BDC003B6923F0F0033B617B681B013A691343AB
:102BEC003B617B6923F00A037B617A69BB68134301
:102BFC007B61FB683A699A61FB687A691A6200BF6B
:102C0C001C37BD4680BC704780B487B000AFF860FD
:102C1C00B9607A60FB681B6A23F01002FB681A62C9
:102C2C00FB689B697B61FB681B6A3B617B6923F4D6
:102C3C0070437B617B681B037A6913437B613B693F
:102C4C0023F0A0033B61BB681B013A6913433B6152
:102C5C00FB687A699A61FB683A691A6200BF1C3793
:102C6C00BD4680BC704780B485B000AF78603960D9
:102C7C007B689B68FB60FB6823F07003FB603A6821
:102C8C00FB68134343F00703FB607B68FA689A60A8
:102C9C0000BF1437BD4680BC704780B487B000AF0E
:102CAC00F860B9607A603B60FB689B687B617B690C
:102CBC0023F47F437B613B681A027B681A43BB6831
:102CCC0013437A6913437B61FB687A699A6000BF8E
:102CDC001C37BD4680BC704780B485B000AF7860AF
:102CEC0039607B6893F83C30012B01D1022341E021
:102CFC007B68012283F83C207B68022283F83D200C
:102D0C007B681B685B68FB607B681B689B68BB60AF
:102D1C00FB6823F07003FB603B681B68FA68134385
:102D2C00FB607B681B68FA685A607B681B68144AF6
:102D3C00934209D07B681B68B3F1804F04D07B6849
:102D4C001B68104A93420CD1BB6823F08003BB6014
:102D5C003B685B68BA681343BB607B681B68BA68E6
:102D6C009A607B68012283F83D207B68002283F8FF
:102D7C003C20002318461437BD4680BC704700BF6A
:102D8C00002C01400004004080B483B000AF786098
:102D9C0000BF0C37BD4680BC704780B483B000AF19
:102DAC00786000BF0C37BD4680BC704770B50026FC
:102DBC000C4D0D4C641BA410A64209D100F022F856
:102DCC0000260A4D0A4C641BA410A64205D170BD06
:102DDC0055F8043B98470136EEE755F8043B984705
:102DEC000136F2E7482E0008482E0008482E00084D
:102DFC004C2E000803460244934200D1704703F85E
:102E0C00011BF9E7F8B500BFF8BC08BC9E4670473B
:0C2E1C00F8B500BFF8BC08BC9E4670472B
:102E280002030405060708090A0B0C0D0E0F101003
:102E38000000000000000000010203040607080962
:042E4800310100084C
:042E4C000D0100086C
:102E5000010000000100000001000000010000006E
:102E6000010000000100000001000000010000005E
:102E7000010000000100000001000000010000004E
:102E80002C0100002C0100002C01000002000000B9
:102E90000500000002000000030000000024F40010
:082EA000100000000100000019
:040000050800177167
:00000001FF
