:020000040800F2
:10000000002800207115000861140008671400081A
:100010006D14000873140008791400080000000033
:100020000000000000000000000000007F14000835
:100030008B1400080000000097140008A3140008A7
:10004000B9150008B9150008B9150008B915000858
:10005000B9150008B9150008B9150008B915000848
:10006000B9150008B9150008B9150008B915000838
:10007000B9150008B9150008B9150008B915000828
:10008000B9150008B9150008B9150008B915000818
:10009000B9150008B9150008B9150008B915000808
:1000A000B9150008B9150008B9150008B9150008F8
:1000B000B1140008B915000800000000B9150008C7
:1000C000B91500080000000000000000B915000884
:1000D00000000000B9150008B91500080000000074
:1000E000B9150008B9150008B9150008000000008E
:1000F0000000000000000000000000000000000000
:0C01000000000000000000005FF808F1A3
:10010C0010B5054C237833B9044B13B10448AFF345
:10011C0000800123237010BD580000200000000057
:10012C00102C000808B5034B1BB103490348AFF36F
:10013C00008008BD000000005C000020102C0008AE
:10014C0080B400AF064B1B68012B04D1044B00227A
:10015C001A60012300E000231846BD4680BC70479E
:10016C007400002080B400AF064B1B68012B04D137
:10017C00044B00221A60012300E000231846BD4600
:10018C0080BC70477800002080B400AF064B1B6821
:10019C00012B04D1044B00221A60012300E0002340
:1001AC001846BD4680BC70477C00002080B500AF6F
:1001BC00234B5B68224A1360214B9B68204A536097
:1001CC004FF480411F4801F0DDFC03461A461C4BDE
:1001DC009A601B4B1A681A4B5B689A422ED1184BCB
:1001EC005A68174B9B689A4228D1154BDA68144B06
:1001FC009B689A420FD0124B9B68114AD360104BEC
:10020C009B68002B1AD1104B01221A600F4B4FF434
:10021C0096721A6012E00D4B1B68013B0B4A13607F
:10022C000A4B1B68002B09D1054B9B68002B05D191
:10023C00064B64221A60044B01221A6000BF80BD79
:10024C00000000200010014074000020300000204D
:10025C0080B500AF234B5B68224A1360214B9B682F
:10026C00204A53604FF400411F4801F08BFC0346B9
:10027C001A461C4B9A601B4B1A681A4B5B689A42C5
:10028C002ED1184B5A68174B9B689A4228D1154BA4
:10029C00DA68144B9B689A420FD0124B9B68114A38
:1002AC00D360104B9B68002B1AD1104B01221A60A3
:1002BC000F4B4FF496721A6012E00D4B1B68013B0A
:1002CC000B4A13600A4B1B68002B09D1054B9B682A
:1002DC00002B05D1064B64221A60044B01221A60D4
:1002EC0000BF80BD100000200010014078000020ED
:1002FC003400002080B500AF234B5B68224A1360AA
:10030C00214B9B68204A53600121204801F03AFCA4
:10031C0003461A461C4B9A601B4B1A681A4B5B68B7
:10032C009A422ED1184B5A68174B9B689A4228D187
:10033C00154BDA68144B9B689A420FD0124B9B6892
:10034C00114AD360104B9B68002B1AD1104B012221
:10035C001A60104B4FF496721A6012E00D4B1B682A
:10036C00013B0C4A13600B4B1B68002B09D1064B4D
:10037C009B68002B05D1074B64221A60044B0122A9
:10038C001A6000BF80BD00BF200000200014014097
:10039C007C0000203800002080B582B000AF78606F
:1003AC007B68092B7FD801A252F823F0E1030008E7
:1003BC00F70300080D0400082304000839040008A2
:1003CC004F040008650400087B0400089104000831
:1003DC009D04000800223F21354801F0EAFB012270
:1003EC004021334801F0E5FB5EE0012279213048E1
:1003FC0001F0DFFB002206212D4801F0DAFB53E06F
:10040C0000225B212A4801F0D4FB01222421284838
:10041C0001F0CFFB48E000224F21254801F0C9FB39
:10042C0001223021224801F0C4FB3DE0002266216C
:10043C001F4801F0BEFB012219211D4801F0B9FB38
:10044C0032E000226D211A4801F0B3FB0122122187
:10045C00174801F0AEFB27E000227D21144801F083
:10046C00A8FB01220221124801F0A3FB1CE0002290
:10047C0007210F4801F09DFB012278210C4801F067
:10048C0098FB11E000227F21094801F092FB0BE060
:10049C0000226F21064801F08CFB01221021044838
:1004AC0001F087FB00E000BF00BF0837BD4680BDF0
:1004BC000008014080B582B000AF78607B68092BE2
:1004CC0000F2D08001A252F823F000BF0105000811
:1004DC002305000851050008730500089505000860
:1004EC00C3050008F10500081506000837060008CA
:1004FC004F06000800220F215D4801F05AFB012233
:10050C0010215B4801F055FB00224FF44041594843
:10051C0001F04FFBA7E001221E21554801F049FBD9
:10052C0000220121524801F044FB01224FF480418A
:10053C00504801F03EFB00224FF400414D4801F0C1
:10054C0038FB90E000221621494801F032FB0122D1
:10055C000921474801F02DFB00224FF4404145484A
:10056C0001F027FB7FE000221321414801F021FB21
:10057C0001220C213E4801F01CFB00224FF44041AB
:10058C003C4801F016FB6EE000221921384801F0BE
:10059C0010FB01220621364801F00BFB00224FF420
:1005AC000041344801F005FB01224FF480413148F1
:1005BC0001F0FFFA57E000221B212D4801F0F9FA57
:1005CC00012204212A4801F0F4FA00224FF4804160
:1005DC00284801F0EEFA01224FF40041254801F0C1
:1005EC00E8FA40E000221F21214801F0E2FA012242
:1005FC004FF400411F4801F0DCFA00224FF4804117
:10060C001C4801F0D6FA2EE000220121184801F016
:10061C00D0FA01221E21164801F0CBFA00224FF429
:10062C004041144801F0C5FA1DE000221F2110487A
:10063C0001F0BFFA00224FF440410E4801F0B9FA24
:10064C0011E000221B210A4801F0B3FA0122042117
:10065C00074801F0AEFA00224FF44041054801F082
:10066C00A8FA00E000BF00BF0837BD4680BD00BF40
:10067C00000C01400008014080B582B000AF7860EA
:10068C007B68092B00F2948001A252F823F000BF82
:10069C00C5060008DF060008F90600081307000865
:1006AC002D07000847070008610700087B070008B2
:1006BC0095070008A307000800224FF4FC513F489F
:1006CC0001F077FA01224FF400513C4801F071FA25
:1006DC006FE001224FF47251384801F06AFA00229F
:1006EC004FF44071354801F064FA62E000224FF497
:1006FC003651324801F05DFA01224FF490512F48E7
:10070C0001F057FA55E000224FF41E512B4801F02E
:10071C0050FA01224FF4C051284801F04AFA48E03F
:10072C0000224FF44C51254801F043FA01224FF4BA
:10073C004861224801F03DFA3BE000224FF45A5147
:10074C001E4801F036FA01224FF410611B4801F0EB
:10075C0030FA2EE000224FF47A51184801F029FAB1
:10076C0001224FF48071154801F023FA21E0002298
:10077C004FF46071114801F01CFA01224FF4E25160
:10078C000E4801F016FA14E000224FF47E510B488B
:10079C0001F00FFA0DE000224FF45E51074801F012
:1007AC0008FA01224FF40061044801F002FA00E05B
:1007BC0000BF00BF0837BD4680BD00BF0008014028
:1007CC0080B582B000AF78607B68092B00F2C780DF
:1007DC0001A252F823F000BF0D08000827080008FA
:1007EC004B0800087108000897080008BD080008AD
:1007FC00E3080008070900082B0900084509000850
:10080C0000224FF4FC61584801F0D3F901224FF457
:10081C000061554801F0CDF9A2E001224FF4E461EA
:10082C00514801F0C6F901224FF400614E4801F025
:10083C00C0F90022C0214C4801F0BBF990E0002225
:10084C004FF45871484801F0B4F900224FF400619C
:10085C00454801F0AEF901224FF49061424801F095
:10086C00A8F97DE000224FF4F0713F4801F0A1F9A6
:10087C0000224FF400613C4801F09BF901224FF437
:10088C00C061394801F095F96AE000224FF4986193
:10089C00354801F08EF900224FF40061324801F026
:1008AC0088F901224FF448712F4801F082F957E082
:1008BC0000224FF4B4612C4801F07BF900224FF474
:1008CC000061294801F075F901224FF41071264896
:1008DC0001F06FF944E000224FF4F461224801F07A
:1008EC0068F900224FF400611F4801F062F90122FF
:1008FC0040211D4801F05DF932E00022E0211A4848
:10090C0001F057F901224FF4E061174801F051F959
:10091C0001224FF40061144801F04BF920E0002251
:10092C004FF4FC61104801F044F900224FF40061CF
:10093C000D4801F03EF913E000224FF4BC610A4867
:10094C0001F037F900224FF40061074801F031F94A
:10095C0001224FF40071044801F02BF900E000BFB4
:10096C0000BF0837BD4680BD000C014080B500AF0C
:10097C009E4B1B68013B042B00F2838301A252F8AF
:10098C0023F000BFA5090008D10900080D0E0008CE
:10099C00090F0008CD0F0008944B02221A60642046
:1009AC0000F090FD642000F0A1FD914B00221A6034
:1009BC00904B02221A60904B00221A608F4B00223F
:1009CC001A6065E3FFF7BCFB0346012B07D1874B8D
:1009DC0003221A608A4B1B688A4A136058E3844BC3
:1009EC001B68022B00F0A180022B00F3EA80002B85
:1009FC0002D0012B4DD0E4E0814B1A687E4B1B6872
:100A0C00D31A814A82FB03129210DB17D31A1846B1
:100A1C00FFF7C2FC7A4B1A68774B1B68D21A7A4BD9
:100A2C0083FB02139910D317C91A0B469B000B4476
:100A3C005B00D11A0846FFF71FFE6F4B1A68704B0C
:100A4C001B689A4206DB6A4B02221A606A4B002230
:100A5C001A60BDE0002202216C4801F0AAF80122C4
:100A6C004FF480516A4801F0A4F801224FF4005170
:100A7C00674801F09EF8674B1B68012B40F0A38080
:100A8C005D4B1B6801335C4A1360642000F01AFD57
:100A9C0099E0614B1A68584B1B68D31A5A4A82FB6F
:100AAC0003129210DB17D31A1846FFF775FC5A4B3A
:100ABC001A68514B1B68D21A534B83FB02139910C3
:100ACC00D317C91A0B469B000B445B00D11A08467E
:100ADC00FFF7D2FD484B1A684F4B1B689A4206DB56
:100AEC00434B00221A60444B00221A6070E0012232
:100AFC000221464801F05DF800224FF48051444831
:100B0C0001F057F801224FF40051414801F051F81F
:100B1C00404B1B68012B58D1374B1B680133364AAD
:100B2C001360642000F0CEFC4FE03C4B1A68324B53
:100B3C001B68D31A344A82FB03129210DB17D31AA8
:100B4C001846FFF729FC354B1A682B4B1B68D21A39
:100B5C002D4B83FB02139910D317C91A0B469B001C
:100B6C000B445B00D11A0846FFF786FD224B1A682E
:100B7C002A4B1B689A4206DB1D4B01221A601E4B46
:100B8C0000221A6024E001220221204801F011F811
:100B9C0001224FF480511E4801F00BF800224FF453
:100BAC0000511B4801F005F81A4B1B68012B0ED1A4
:100BBC00114B1B680133104A1360642000F082FC57
:100BCC0005E000BF04E000BF02E000BF00E000BF92
:100BDC00084B1B68022B00F0BE80022B00F308812F
:100BEC00002B1DD0012B69D002E100BF8C0000202E
:100BFC00800000203C0000208400002088000020A1
:100C0C0040000020900000206766666600140140DA
:100C1C00000C0140980000204400002048000020F7
:100C2C00A94B1A68A94B1B68D31AA94A82FB031259
:100C3C009210DB17D31A1846FFF73CFCA24B1A682C
:100C4C00A24B1B68D21AA24B83FB02139910D31729
:100C5C00C91A0B469B000B445B00D11A0846FFF7E0
:100C6C00AFFD9A4B1A68984B1B689A4206DB994B5E
:100C7C0002221A60954B00221A60C0E000224FF449
:100C8C008041954800F095FF01224FF400419248B5
:100C9C0000F08FFF01224FF40051904800F089FFC3
:100CAC008F4B1B68012B40F0A580884B1B680133D0
:100CBC00864A1360642000F019FC9BE0894B1A688B
:100CCC00824B1B68D31A824A82FB03129210DB17E9
:100CDC00D31A1846FFF7EEFB824B1A687B4B1B6846
:100CEC00D21A7B4B83FB02139910D317C91A0B46EC
:100CFC009B000B445B00D11A0846FFF761FD734B58
:100D0C001A68784B1B689A4206DB724B00221A60F9
:100D1C006E4B00221A6072E001224FF480416E4843
:100D2C0000F047FF00224FF400416B4800F041FFF8
:100D3C0001224FF40051694800F03BFF684B1B68DF
:100D4C00012B59D1614B1B680133604A136064203D
:100D5C0000F0CCFB50E0644B1A685C4B1B68D31A58
:100D6C005B4A82FB03129210DB17D31A1846FFF76B
:100D7C00A1FB5D4B1A68554B1B68D21A544B83FB75
:100D8C0002139910D317C91A0B469B000B445B0036
:100D9C00D11A0846FFF714FD4C4B1A68524B1B68CE
:100DAC009A4206DB4B4B01221A60484B00221A6018
:100DBC0025E001224FF48041474800F0FAFE012261
:100DCC004FF40041444800F0F4FE00224FF400516F
:100DDC00424800F0EEFE424B1B68012B0ED13B4B00
:100DEC001B680133394A1360642000F07FFB05E077
:100DFC0000BF4DE100BF4BE100BF49E100BF47E13F
:100E0C00192000F05FFB394B1B68012B12D1192004
:100E1C0000F058FB0221364800F0E3FE01224FF4AB
:100E2C0080512D4800F0C5FE01224FF400512A4894
:100E3C0000F0BFFE0120FFF73DFB0120FFF7C0FCD7
:100E4C002C4B1B68224A82FB03129210DB17D31A1D
:100E5C001846FFF7A1FA274B1A681D4B83FB0213A8
:100E6C009910D317C91A0B469B000B445B00D11A7F
:100E7C000846FFF701FCFFF775F90346012B0BD170
:100E8C001C4B1B6801331B4A13601A4B1B68632BEA
:100E9C0002DD184B00221A60FFF776F90346012B8E
:100EAC0003D1144B1B68084A1360FFF749F903463A
:100EBC00012B40F0E8800B4B1B680E4A13600E4B65
:100ECC0004221A60E4E000BF4000002088000020EB
:100EDC00676666663C000020000C01400010014073
:100EEC00A0000020440000204800002098000020B2
:100EFC0000140140900000208C000020192000F00C
:100F0C00E1FA644B1B68012B12D1192000F0DAFABC
:100F1C004FF48051604800F064FE012202215F48CA
:100F2C0000F047FE01224FF400515B4800F041FEF7
:100F3C000220FFF7BFFA0220FFF742FC584B1B6858
:100F4C00584A82FB03129210DB17D31A1846FFF78C
:100F5C0023FA534B1A68534B83FB02139910D31784
:100F6C00C91A0B469B000B445B00D11A0846FFF7CD
:100F7C0083FBFFF7F7F80346012B0BD1484B1B689B
:100F8C000133474A1360464B1B68632B02DD444B0D
:100F9C0000221A60FFF7F8F80346012B03D1404BEF
:100FAC001B68414A1360FFF7CBF80346012B6CD149
:100FBC003E4B1B683A4A13603D4B05221A6067E0B2
:100FCC00192000F07FFA334B1B68012B12D119202A
:100FDC0000F078FA4FF400512F4800F002FE012285
:100FEC0002212E4800F0E5FD01224FF480512A48E1
:100FFC0000F0DFFD0320FFF75DFA0320FFF7E0FBB5
:10100C00274B1B68274A82FB03129210DB17D31A5B
:10101C001846FFF7C1F9224B1A68224B83FB0213C7
:10102C009910D317C91A0B469B000B445B00D11ABD
:10103C000846FFF721FBFFF795F80346012B0BD170
:10104C00174B1B680133164A1360154B1B68632B37
:10105C0002DD134B00221A60FFF796F80346012BB2
:10106C0003D10F4B1B68114A1360FFF769F8034655
:10107C00012B0CD10A4B00221A600D4B01221A6075
:10108C0006E000BF04E000BF02E000BF00E000BFCC
:10109C0000BF80BD98000020000C014000140140EE
:1010AC00900000206766666644000020480000201F
:1010BC008C00002080B500AF00F07AFA00F012F836
:1010CC0000F098F800F04AF8044801F0DBF9044B02
:1010DC0001221A60FFF74AFCFCE700BFA4000020C5
:1010EC008C00002080B590B000AF07F118032822C7
:1010FC000021184601F07EFD3B1D00221A605A604B
:10110C009A60DA601A610223BB610123BB6210236F
:10111C00FB6200237B6307F11803184600F07AFD8D
:10112C000346002B01D000F039F90F237B6000231C
:10113C00BB600023FB6000233B6100237B613B1DF4
:10114C000021184600F0E6FF0346002B01D000F00A
:10115C0025F900BF4037BD4680BD000080B586B084
:10116C0000AF07F1080300221A605A609A60DA6037
:10117C003B4600221A605A601D4B4FF080421A60A9
:10118C001B4B41F63F725A60194B00229A60184B68
:10119C000922DA60164B00221A61154B00229A6163
:1011AC00134801F01FF90346002B01D000F0F6F8AC
:1011BC004FF48053BB6007F1080319460C4801F04B
:1011CC00B5FA0346002B01D000F0E8F800233B6091
:1011DC0000237B603B461946054801F07DFC034625
:1011EC00002B01D000F0DAF800BF1837BD4680BDE7
:1011FC00A400002080B58AB000AF07F114030022D0
:10120C001A605A609A60DA60564B9B69554A43F0F3
:10121C0010039361534B9B6903F010033B613B69D3
:10122C00504B9B694F4A43F0200393614D4B9B6994
:10123C0003F02003FB60FB684A4B9B69494A43F06F
:10124C0004039361474B9B6903F00403BB60BB68C9
:10125C00444B9B69434A43F008039361414B9B69A0
:10126C0003F008037B607B6800224FF400513E487A
:10127C0000F09FFC002202213C4800F09AFC002266
:10128C004FF6FF713A4800F094FC00224FF6FF71C4
:10129C00384800F08EFC4FF400537B610123BB6196
:1012AC000023FB6102233B6207F1140319462E480D
:1012BC0000F0EEFA4FF440437B610023BB61012345
:1012CC00FB6107F114031946274800F0E1FA0123EA
:1012DC007B610023BB610123FB6107F114031946F9
:1012EC00224800F0D5FA02237B610123BB61002365
:1012FC00FB6102233B6207F1140319461B4800F003
:10130C00C7FA4FF6FF737B610123BB610023FB61BE
:10131C0002233B6207F114031946154800F0B8FA92
:10132C004FF6FF737B610123BB610023FB6102233A
:10133C003B6207F1140319460E4800F0A9FA0E4B54
:10134C005B687B627B6A43F0E0637B627B6A43F49D
:10135C0000437B62084A7B6A536000BF2837BD4656
:10136C0080BD00BF0010024000100140001401407D
:10137C0000080140000C01400000014080B582B023
:10138C0000AF786000F0C6F8FEF710FFFEF760FFC4
:10139C00FEF7B0FF00BF0837BD4680BD80B400AF7C
:1013AC0072B600BFFEE7000080B485B000AF154BED
:1013BC009B69144A43F001039361124B9B6903F040
:1013CC000103BB60BB680F4BDB690E4A43F08053D3
:1013DC00D3610C4BDB6903F080537B607B680A4B59
:1013EC005B68FB60FB6823F0E063FB60FB6843F029
:1013FC008063FB60044AFB68536000BF1437BD4632
:10140C0080BC7047001002400000014080B584B0E1
:10141C0000AF78607B681B68B3F1804F13D10C4B25
:10142C00DB690B4A43F00103D361094BDB6903F021
:10143C000103FB60FB68002200211C2000F0F1F985
:10144C001C2000F00AFA00BF1037BD4680BD00BF5B
:10145C000010024080B400AFFEE780B400AFFEE79E
:10146C0080B400AFFEE780B400AFFEE780B400AFFD
:10147C00FEE780B400AF00BFBD4680BC704780B4AF
:10148C0000AF00BFBD4680BC704780B400AF00BF4A
:10149C00BD4680BC704780B500AF00F0CFF800BFF0
:1014AC0080BD000080B500AF024801F037F800BFE6
:1014BC0080BD00BFA400002080B400AF00BFBD46BB
:1014CC0080BC704780B483B000AF7860054A7B68FD
:1014DC001360054B00221A6000BF0C37BD4680BC60
:1014EC00704700BF940000209800002080B483B0A7
:1014FC0000AF7860054A7B681360054B00221A60C8
:10150C0000BF0C37BD4680BC704700BF9C0000205C
:10151C00A000002080B400AF0E4B1B68002B05DD33
:10152C000C4B1B68013B0B4A136002E00A4B012277
:10153C001A600A4B1B68002B05DD084B1B68013B2E
:10154C00064A136002E0064B01221A6000BFBD463A
:10155C0080BC704794000020980000209C00002064
:10156C00A00000200C480D490D4A002302E0D4587D
:10157C00C4500433C4188C42F9D30A4A0A4C0023D1
:10158C0001E013600432A242FBD3FFF795FF01F098
:10159C000DFBFFF78FFD7047000000205800002066
:1015AC00502C000858000020F0000020FEE700003E
:1015BC0080B500AF084B1B68074A43F0100313605B
:1015CC00032000F023F90F2000F008F8FFF7ECFEE1
:1015DC000023184680BD00BF0020024080B582B0B9
:1015EC0000AF7860124B1A68124B1B7819464FF4F7
:1015FC007A73B3FBF1F3B2FBF3F3184600F03BF94B
:10160C000346002B01D001230EE07B680F2B0AD878
:10161C00002279684FF0FF3000F003F9064A7B682E
:10162C001360002300E0012318460837BD4680BD37
:10163C004C000020540000205000002080B400AF6B
:10164C00054B1B781A46054B1B681344034A136061
:10165C0000BFBD4680BC704754000020EC00002049
:10166C0080B400AF024B1B681846BD4680BC704767
:10167C00EC00002080B485B000AF78607B6803F08C
:10168C000703FB600C4BDB68BB60BA684FF6FF03CB
:10169C001340BB60FB681A02BB68134343F0BF6383
:1016AC0043F40033BB60044ABB68D36000BF1437FB
:1016BC00BD4680BC704700BF00ED00E080B400AFB9
:1016CC00044BDB681B0A03F007031846BD4680BCBD
:1016DC00704700BF00ED00E080B483B000AF03465C
:1016EC00FB7197F90730002B0BDBFB7903F01F0222
:1016FC00064997F907305B09012000FA02F241F81C
:10170C00232000BF0C37BD4680BC704700E100E0D1
:10171C0080B483B000AF03463960FB7197F9073092
:10172C00002B0ADB3B68DAB20C4997F9073012013F
:10173C00D2B20B4483F800230AE03B68DAB20849C2
:10174C00FB7903F00F03043B1201D2B20B441A765F
:10175C0000BF0C37BD4680BC704700BF00E100E005
:10176C0000ED00E080B489B000AFF860B9607A6039
:10177C00FB6803F00703FB61FB69C3F10703042B50
:10178C0028BF0423BB61FB690433062B02D9FB6918
:10179C00033B00E000237B614FF0FF32BB6902FA90
:1017AC0003F3DA43BB681A407B699A404FF0FF3170
:1017BC007B6901FA03F3D9437B680B40134318464A
:1017CC002437BD4680BC704780B582B000AF7860CE
:1017DC007B68013BB3F1807F01D301230FE00A4A00
:1017EC007B68013B53600F214FF0FF30FFF790FFF8
:1017FC00054B00229A60044B07221A6000231846FE
:10180C000837BD4680BD00BF10E000E080B582B057
:10181C0000AF78607868FFF72DFF00BF0837BD4632
:10182C0080BD80B586B000AF0346B9607A60FB73AB
:10183C0000237B61FFF742FF78617A68B9687869A9
:10184C00FFF790FF024697F90F3011461846FFF745
:10185C005FFF00BF1837BD4680BD80B582B000AFBA
:10186C000346FB7197F907301846FFF735FF00BFA9
:10187C000837BD4680BD80B582B000AF786078680F
:10188C00FFF7A2FF034618460837BD4680BD00008F
:10189C0080B48BB000AF7860396000237B6200238A
:1018AC003B6248E101227B6A02FA03F3FB613B686D
:1018BC001B68FA691340BB61BA69FB699A4240F034
:1018CC0037813B685B68A34A93425ED0A14A93423E
:1018DC0075D8A14A934258D09F4A93426FD89F4AD9
:1018EC00934252D09D4A934269D89D4A93424CD020
:1018FC009B4A934263D89B4A934246D0994A93425F
:10190C005DD8122B2AD8122B59D801A252F823F0E9
:10191C00971900087119000883190008C5190008E7
:10192C00CB190008CB190008CB190008CB190008FB
:10193C00CB190008CB190008CB190008CB190008EB
:10194C00CB190008CB190008CB190008CB190008DB
:10195C00CB190008791900088D190008824A9342A6
:10196C0013D02CE03B68DB683B6229E03B68DB680A
:10197C0004333B6224E03B68DB6808333B621FE0C6
:10198C003B68DB680C333B621AE03B689B68002BBE
:10199C0002D104233B6213E03B689B68012B05D109
:1019AC0008233B627B68FA691A6109E008233B62F1
:1019BC007B68FA695A6103E000233B6200E000BFD8
:1019CC00BB69FF2B01D87B6801E07B6804337B612A
:1019DC00BB69FF2B02D87B6A9B0002E07B6A083B49
:1019EC009B003B617B691A680F213B6901FA03F389
:1019FC00DB431A40396A3B6901FA03F31A437B69EA
:101A0C001A603B685B6803F08053002B00F09080F9
:101A1C00564B9B69554A43F001039361534B9B69A9
:101A2C0003F00103BB60BB68514A7B6A9B0802331D
:101A3C0052F82330FB607B6A03F003039B000F22F8
:101A4C0002FA03F3DB43FA681340FB607B68494AF4
:101A5C0093420DD07B68484A934207D07B68474A33
:101A6C00934201D1022304E0032302E0012300E0AE
:101A7C0000237A6A02F0030292009340FA6813433F
:101A8C00FB603B497B6A9B080233FA6841F82320D0
:101A9C003B685B6803F48033002B06D0384B1A6824
:101AAC003749BB6913430B6006E0354B1A68BB69B9
:101ABC00DB43334913400B603B685B6803F4003332
:101ACC00002B06D02E4B5A682D49BB6913434B6033
:101ADC0006E02B4B5A68BB69DB43294913404B602A
:101AEC003B685B6803F48013002B06D0244B9A6888
:101AFC002349BB6913438B6006E0214B9A68BB6991
:101B0C00DB431F4913408B603B685B6803F4001395
:101B1C00002B06D01A4BDA681949BB691343CB600A
:101B2C0006E0174BDA68BB69DB4315491340CB6001
:101B3C007B6A01337B623B681A687B6A22FA03F387
:101B4C00002B7FF4AFAE00BF00BF2C37BD4680BC6E
:101B5C00704700BF0000321000003110000022104E
:101B6C0000002110000012100000111000100240A3
:101B7C000000014000080140000C01400010014031
:101B8C000004014080B485B000AF78600B467B80C8
:101B9C007B689A687B881340002B02D00123FB736F
:101BAC0001E00023FB73FB7B18461437BD4680BC59
:101BBC00704780B483B000AF78600B467B801346CF
:101BCC007B707B78002B03D07A887B681A6103E0EA
:101BDC007B881A047B681A6100BF0C37BD4680BC39
:101BEC00704780B485B000AF78600B467B807B6813
:101BFC00DB68FB607A88FB6813401A04FB68D943E6
:101C0C007B880B401A437B681A6100BF1437BD46B2
:101C1C0080BC704780B586B000AF78607B68002BC5
:101C2C0001D101236CE27B681B6803F00103002BDC
:101C3C0000F08780924B5B6803F00C03042B0CD0F4
:101C4C008F4B5B6803F00C03082B12D18C4B5B6839
:101C5C0003F48033B3F5803F0BD1894B1B6803F43D
:101C6C000033002B6CD07B685B68002B68D10123A0
:101C7C0046E27B685B68B3F5803F06D1804B1B68FE
:101C8C007F4A43F4803313602EE07B685B68002B43
:101C9C000CD17B4B1B687A4A23F480331360784B4E
:101CAC001B68774A23F4802313601DE07B685B6814
:101CBC00B3F5A02F0CD1724B1B68714A43F48023EF
:101CCC0013606F4B1B686E4A43F4803313600BE058
:101CDC006B4B1B686A4A23F480331360684B1B6898
:101CEC00674A23F4802313607B685B68002B13D056
:101CFC00FFF7B6FC386108E0FFF7B2FC02463B691F
:101D0C00D31A642B01D90323FAE15D4B1B6803F44E
:101D1C000033002BF0D014E0FFF7A2FC386108E090
:101D2C00FFF79EFC02463B69D31A642B01D90323AF
:101D3C00E6E1534B1B6803F40033002BF0D100E0B9
:101D4C0000BF7B681B6803F00203002B63D04C4B75
:101D5C005B6803F00C03002B0BD0494B5B6803F062
:101D6C000C03082B1CD1464B5B6803F48033002B0F
:101D7C0016D1434B1B6803F00203002B05D07B6884
:101D8C001B69012B01D00123BAE13D4B1B6823F0E9
:101D9C00F8027B685B69DB00394913430B603AE05E
:101DAC007B681B69002B20D0364B01221A60FFF791
:101DBC0057FC386108E0FFF753FC02463B69D31A25
:101DCC00022B01D903239BE12D4B1B6803F002036B
:101DDC00002BF0D02A4B1B6823F0F8027B685B6960
:101DEC00DB00274913430B6015E0264B00221A60D9
:101DFC00FFF736FC386108E0FFF732FC02463B691E
:101E0C00D31A022B01D903237AE11D4B1B6803F073
:101E1C000203002BF0D17B681B6803F00803002B36
:101E2C003AD07B689B69002B19D0174B01221A60A2
:101E3C00FFF716FC386108E0FFF712FC02463B691D
:101E4C00D31A022B01D903235AE10D4B5B6A03F021
:101E5C000203002BF0D0012000F0A6FA1CE00A4B84
:101E6C0000221A60FFF7FCFB38610FE0FFF7F8FB6C
:101E7C0002463B69D31A022B08D9032340E100BF69
:101E8C000010024000004242800442429E4B5B6ABA
:101E9C0003F00203002BE9D17B681B6803F00403F9
:101EAC00002B00F0A6800023FB75974BDB6903F039
:101EBC008053002B0DD1944BDB69934A43F0805334
:101ECC00D361914BDB6903F08053BB60BB6801238A
:101EDC00FB758E4B1B6803F48073002B18D18B4B56
:101EEC001B688A4A43F480731360FFF7B9FB3861AF
:101EFC0008E0FFF7B5FB02463B69D31A642B01D906
:101F0C000323FDE0814B1B6803F48073002BF0D09E
:101F1C007B68DB68012B06D17B4B1B6A7A4A43F04A
:101F2C00010313622DE07B68DB68002B0CD1764B30
:101F3C001B6A754A23F001031362734B1B6A724AC6
:101F4C0023F0040313621CE07B68DB68052B0CD1C7
:101F5C006D4B1B6A6C4A43F0040313626A4B1B6A99
:101F6C00694A43F0010313620BE0674B1B6A664A34
:101F7C0023F001031362644B1B6A634A23F00403CE
:101F8C0013627B68DB68002B15D0FFF769FB3861A7
:101F9C000AE0FFF765FB02463B69D31A41F288322F
:101FAC00934201D90323ABE0574B1B6A03F00203A6
:101FBC00002BEED014E0FFF753FB38610AE0FFF77B
:101FCC004FFB02463B69D31A41F28832934201D946
:101FDC00032395E04C4B1B6A03F00203002BEED15C
:101FEC00FB7D012B05D1484BDB69474A23F080531D
:101FFC00D3617B68DB69002B00F08180424B5B680E
:10200C0003F00C03082B61D07B68DB69022B46D1F3
:10201C003F4B00221A60FFF723FB386108E0FFF703
:10202C001FFB02463B69D31A022B01D9032367E03D
:10203C00354B1B6803F00073002BF0D17B681B6AD7
:10204C00B3F5803F08D1304B5B6823F400327B68DA
:10205C009B682D4913434B602B4B5B6823F4741224
:10206C007B68196A7B685B6A0B43274913434B6097
:10207C00274B01221A60FFF7F3FA386108E0FFF7EB
:10208C00EFFA02463B69D31A022B01D9032337E03E
:10209C001D4B1B6803F00073002BF0D02FE01C4B82
:1020AC0000221A60FFF7DCFA386108E0FFF7D8FA73
:1020BC0002463B69D31A022B01D9032320E0124BB1
:1020CC001B6803F00073002BF0D118E07B68DB6910
:1020DC00012B01D1012313E00B4B5B68FB60FB6808
:1020EC0003F480327B681B6A9A4206D1FB6803F4C6
:1020FC0070127B685B6A9A4201D0012300E00023D6
:10210C0018461837BD4680BD0010024000700040D4
:10211C006000424280B584B000AF786039607B6863
:10212C00002B01D10123D0E06A4B1B6803F007039D
:10213C003A689A4210D9674B1B6823F0070265492D
:10214C003B6813430B60634B1B6803F007033A684F
:10215C009A4201D00123B8E07B681B6803F00203AC
:10216C00002B20D07B681B6803F00403002B05D0E8
:10217C00594B5B68584A43F4E06353607B681B68B7
:10218C0003F00803002B05D0534B5B68524A43F411
:10219C0060535360504B5B6823F0F0027B689B6884
:1021AC004D4913434B607B681B6803F00103002B04
:1021BC0040D07B685B68012B07D1474B1B6803F44D
:1021CC000033002B15D101237FE07B685B68022B69
:1021DC0007D1414B1B6803F00073002B09D101237D
:1021EC0073E03D4B1B6803F00203002B01D101236C
:1021FC006BE0394B5B6823F003027B685B68364904
:10220C0013434B60FFF72CFAF8600AE0FFF728FA4B
:10221C000246FB68D31A41F28832934201D9032358
:10222C0053E02D4B5B6803F00C027B685B689B00F2
:10223C009A42EBD1274B1B6803F007033A689A428A
:10224C0010D2244B1B6823F0070222493B6813432E
:10225C000B60204B1B6803F007033A689A4201D0CD
:10226C00012332E07B681B6803F00403002B08D0C9
:10227C00194B5B6823F4E0627B68DB6816491343F7
:10228C004B607B681B6803F00803002B09D0124BD2
:10229C005B6823F460527B681B69DB000E491343B7
:1022AC004B6000F021F802460B4B5B681B0903F0F6
:1022BC000F030A49CB5C22FA03F3094A1360094B5A
:1022CC001B681846FFF78AF9002318461037BD46DD
:1022DC0080BD00BF0020024000100240382C0008D6
:1022EC004C0000205000002090B48AB000AF2A4B64
:1022FC003C1D0FCB84E80F0040F201233B800023F0
:10230C00FB610023BB6100237B6200237B61002304
:10231C003B62224B5B68FB61FB6903F00C03042BF3
:10232C0002D0082B03D02DE01D4B3B622DE0FB6946
:10233C009B0C03F00F0307F12802134413F8243C01
:10234C007B61FB6903F48033002B13D0134B5B6868
:10235C005B0C03F0010307F12802134413F8283C2B
:10236C00BB617B690E4A02FB03F2BB69B2FBF3F360
:10237C007B6204E07B690B4A02FB03F37B627B6AA2
:10238C003B6202E0064B3B6200BF3B6A18462837B3
:10239C00BD4690BC704700BF282C000800100240BE
:1023AC0000127A0000093D0080B485B000AF78605F
:1023BC000A4B1B680A4AA2FB03235B0A7A6802FBDE
:1023CC0003F3FB6000BFFB685A1EFA60002BF9D1C7
:1023DC0000BF00BF1437BD4680BC70474C000020C6
:1023EC00D34D621080B582B000AF78607B68002B53
:1023FC0001D1012341E07B6893F83D30DBB2002B27
:10240C0006D17B68002283F83C207868FEF7FEFF3B
:10241C007B68022283F83D207B681A687B68043352
:10242C001946104600F06AFA7B68012283F84620B0
:10243C007B68012283F83E207B68012283F83F20D1
:10244C007B68012283F840207B68012283F84120BD
:10245C007B68012283F842207B68012283F84320A9
:10246C007B68012283F844207B68012283F8452095
:10247C007B68012283F83D20002318460837BD46AF
:10248C0080BD000080B485B000AF78607B6893F8A5
:10249C003D30DBB2012B01D0012335E07B680222F9
:1024AC0083F83D207B681B68DA687B681B6842F008
:1024BC000102DA607B681B68164A934209D07B687C
:1024CC001B68B3F1804F04D07B681B68124A93429F
:1024DC0011D17B681B689B6803F00703FB60FB68EA
:1024EC00062B10D07B681B681A687B681B6842F04F
:1024FC0001021A6007E07B681B681A687B681B681E
:10250C0042F001021A60002318461437BD4680BC05
:10251C00704700BF002C01400004004080B582B021
:10252C0000AF78607B681B681B6903F00203022B09
:10253C0022D17B681B68DB6803F00203022B1BD1E2
:10254C007B681B686FF002021A617B6801221A77A4
:10255C007B681B689B6903F00303002B03D078682E
:10256C0000F0B1F905E0786800F0A4F9786800F0A3
:10257C00B3F97B6800221A777B681B681B6903F030
:10258C000403042B22D17B681B68DB6803F0040373
:10259C00042B1BD17B681B686FF004021A617B68EB
:1025AC0002221A777B681B689B6903F44073002B2B
:1025BC0003D0786800F087F905E0786800F07AF9C4
:1025CC00786800F089F97B6800221A777B681B68B1
:1025DC001B6903F00803082B22D17B681B68DB689E
:1025EC0003F00803082B1BD17B681B686FF00802F3
:1025FC001A617B6804221A777B681B68DB6903F01D
:10260C000303002B03D0786800F05DF905E07868CF
:10261C0000F050F9786800F05FF97B6800221A77B7
:10262C007B681B681B6903F01003102B22D17B689D
:10263C001B68DB6803F01003102B1BD17B681B6835
:10264C006FF010021A617B6808221A777B681B688E
:10265C00DB6903F44073002B03D0786800F033F986
:10266C0005E0786800F026F9786800F035F97B68A9
:10267C0000221A777B681B681B6903F00103012B8E
:10268C000ED17B681B68DB6803F00103012B07D1BB
:10269C007B681B686FF001021A617868FEF76EFEAA
:1026AC007B681B681B6903F08003802B0ED17B6851
:1026BC001B68DB6803F08003802B07D17B681B68E9
:1026CC006FF080021A61786800F067FA7B681B680B
:1026DC001B6903F04003402B0ED17B681B68DB6841
:1026EC0003F04003402B07D17B681B686FF040025E
:1026FC001A61786800F0F9F87B681B681B6903F0B5
:10270C002003202B0ED17B681B68DB6803F02003B1
:10271C00202B07D17B681B686FF020021A61786848
:10272C0000F032FA00BF0837BD4680BD80B584B0DA
:10273C0000AF786039607B6893F83C30012B01D195
:10274C000223B3E07B68012283F83C207B680222E1
:10275C0083F83D207B681B689B68FB60FB6823F05B
:10276C007703FB60FB6823F47F43FB607B681B688B
:10277C00FA689A603B681B68B3F5005F3ED0B3F50E
:10278C00005F00F28780B3F5805F00F08580B3F5C1
:10279C00805F7FD8702B1AD0702B7BD8602B50D0D9
:1027AC00602B77D8502B3CD0502B73D8402B58D063
:1027BC00402B6FD8302B64D0302B6BD8202B60D0B3
:1027CC00202B67D8002B5CD0102B5AD062E07B6892
:1027DC0018683B6899683B685A683B68DB6800F08E
:1027EC005CF97B681B689B68FB60FB6843F07703B4
:1027FC00FB607B681B68FA689A604EE07B6818681F
:10280C003B6899683B685A683B68DB6800F045F99F
:10281C007B681B689A687B681B6842F480429A60EC
:10282C003BE07B6818683B6859683B68DB681A4674
:10283C0000F0BCF87B681B685021184600F013F9B7
:10284C002BE07B6818683B6859683B68DB681A4664
:10285C0000F0DAF87B681B686021184600F003F979
:10286C001BE07B6818683B6859683B68DB681A4654
:10287C0000F09CF87B681B684021184600F0F3F8C8
:10288C000BE07B681A683B681B681946104600F021
:10289C00EAF802E000BF00E000BF7B68012283F889
:1028AC003D207B68002283F83C200023184610371B
:1028BC00BD4680BD80B483B000AF786000BF0C37DC
:1028CC00BD4680BC704780B483B000AF786000BF59
:1028DC000C37BD4680BC704780B483B000AF7860C5
:1028EC0000BF0C37BD4680BC704780B483B000AFCE
:1028FC00786000BF0C37BD4680BC704780B485B093
:10290C0000AF786039607B681B68FB607B68254A88
:10291C00934207D07B68B3F1804F03D07B68224A87
:10292C00934208D1FB6823F07003FB603B685B6843
:10293C00FA681343FB607B681A4A934207D07B68A2
:10294C00B3F1804F03D07B68174A934208D1FB68E0
:10295C0023F44073FB603B68DB68FA681343FB604D
:10296C00FB6823F080023B685B691343FB607B6868
:10297C00FA681A603B689A687B68DA623B681A6886
:10298C007B689A627B68074A934203D13B681A6959
:10299C007B681A637B6801225A6100BF1437BD46FD
:1029AC0080BC7047002C01400004004080B487B00C
:1029BC0000AFF860B9607A60FB681B6A7B61FB68EA
:1029CC001B6A23F00102FB681A62FB689B693B617E
:1029DC003B6923F0F0033B617B681B013A691343AD
:1029EC003B617B6923F00A037B617A69BB68134303
:1029FC007B61FB683A699A61FB687A691A6200BF6D
:102A0C001C37BD4680BC704780B487B000AFF860FF
:102A1C00B9607A60FB681B6A23F01002FB681A62CB
:102A2C00FB689B697B61FB681B6A3B617B6923F4D8
:102A3C0070437B617B681B037A6913437B613B6941
:102A4C0023F0A0033B61BB681B013A6913433B6154
:102A5C00FB687A699A61FB683A691A6200BF1C3795
:102A6C00BD4680BC704780B485B000AF78603960DB
:102A7C007B689B68FB60FB6823F07003FB603A6823
:102A8C00FB68134343F00703FB607B68FA689A60AA
:102A9C0000BF1437BD4680BC704780B487B000AF10
:102AAC00F860B9607A603B60FB689B687B617B690E
:102ABC0023F47F437B613B681A027B681A43BB6833
:102ACC0013437A6913437B61FB687A699A6000BF90
:102ADC001C37BD4680BC704780B485B000AF7860B1
:102AEC0039607B6893F83C30012B01D1022341E023
:102AFC007B68012283F83C207B68022283F83D200E
:102B0C007B681B685B68FB607B681B689B68BB60B1
:102B1C00FB6823F07003FB603B681B68FA68134387
:102B2C00FB607B681B68FA685A607B681B68144AF8
:102B3C00934209D07B681B68B3F1804F04D07B684B
:102B4C001B68104A93420CD1BB6823F08003BB6016
:102B5C003B685B68BA681343BB607B681B68BA68E8
:102B6C009A607B68012283F83D207B68002283F801
:102B7C003C20002318461437BD4680BC704700BF6C
:102B8C00002C01400004004080B483B000AF78609A
:102B9C0000BF0C37BD4680BC704780B483B000AF1B
:102BAC00786000BF0C37BD4680BC704770B50026FE
:102BBC000C4D0D4C641BA410A64209D100F022F858
:102BCC0000260A4D0A4C641BA410A64205D170BD08
:102BDC0055F8043B98470136EEE755F8043B984707
:102BEC000136F2E7482C0008482C0008482C000855
:102BFC004C2C000803460244934200D1704703F862
:102C0C00011BF9E7F8B500BFF8BC08BC9E4670473D
:0C2C1C00F8B500BFF8BC08BC9E4670472D
:102C280002030405060708090A0B0C0D0E0F101005
:102C38000000000000000000010203040607080964
:042C4800310100084E
:042C4C000D0100086E
:102C50000100000001000000010000000100000070
:102C60000100000001000000010000000100000060
:102C70000100000001000000010000000100000050
:102C80002C0100002C0100002C01000002000000BB
:102C90000500000002000000030000000024F40012
:082CA00010000000010000001B
:040000050800157169
:00000001FF
